:020000040800F2
:1000000088080020C10100083F2A0008D524000804
:100010003D2A0008BF080008533200080000000015
:10002000000000000000000000000000C92B0008D4
:10003000C108000800000000332B0008CB2B00088B
:10004000DB010008DB010008DB010008DB01000820
:10005000DB010008DB010008DB010008DB01000810
:10006000DB010008DB010008DB010008DB01000800
:10007000DB010008DB010008DB010008DB010008F0
:10008000DB010008DB010008DB010008DB010008E0
:10009000DB010008DB010008DB010008DB010008D0
:1000A000DB010008DB010008DB010008DB010008C0
:1000B000DB010008DB010008DB010008DB010008B0
:1000C000DB010008DB010008DB010008DB010008A0
:1000D000DB010008DB010008DB010008DB01000890
:1000E000DB010008DB010008DB010008DB01000880
:1000F000DB010008DB010008DB010008DB01000870
:10010000DB010008DB0100088D2C0008DB01000882
:10011000DB0100086D2F0008DB010008DB0100088F
:10012000DB010008DB010008DB010008DB0100083F
:10013000DB010008DB010008DB010008DB0100082F
:10014000DB010008DB010008DB010008DB0100081F
:10015000DB010008DB010008DB010008DB0100080F
:10016000DB010008DB010008DB010008DB010008FF
:10017000DB010008DB010008DB01000800000000D3
:10018000DB010008DB010008DB010008DB010008DF
:10019000DB010008DB010008DB010008DB010008CF
:1001A000DB010008DB010008DB010008DFF80CD0F0
:1001B00000F066FB00480047E54B00088808002077
:1001C0000648804706480047FEE7FEE7FEE7FEE7F1
:1001D000FEE7FEE7FEE7FEE7FEE7FEE7712C00081C
:1001E000AD0100082DE9F05F0546002092469B46D0
:1001F00088460646814640241BE02846414647463D
:10020000224600F000FA53465A46C01A914110D3D4
:1002100011461846224600F0E7F92D1A67EB01084F
:100220004F4622460120002100F0DEF917EB0009BD
:100230004E41201EA4F10104DFDC484631462A4627
:100240004346BDE8F09FD2B201E000F8012B491E01
:10025000FBD270470022F6E710B513460A46044663
:100260001946FFF7F0FF204610BD2DE9FE4F8046EE
:1002700081EA0300C00F0C46009021F0004123F0FA
:100280000045B8EB0200A94105D240462146904600
:100290001C460B46024623F00040104347D0270D72
:1002A000C7F30A00C3F30A510290401A0190402894
:1002B0006BDAC3F3130040F4801B0098924620B120
:1002C0000023D2EB030A63EB0B0B01985946C0F1F4
:1002D0004002504600F088F906460D465046594601
:1002E000019A00F0A0F910EB08006141002487EAB0
:1002F000115284EAE7731A4340D0009A62B3019A1C
:10030000012A4FEA075215DC001B61EB02014FF096
:10031000004202EA0752CDE90042001C41F580117B
:1003200032462B4600F0D7F903B0BDE8F08F4046C7
:100330002146F9E7001B61EB0201001C41F5801327
:1003400000185B412018A2F5001747EB030140EAB3
:10035000D570B6196D4111E06D084FEA360645EAD1
:10036000C0754FEA0752001B61EB0201001C41F50A
:10037000801149084FEA30000019514132462B469E
:1003800003B0BDE8F04F00F097B90098012240009B
:100390000023D0EB020263EBE073009821464FEAA2
:1003A000E074B8EB000061EB0401E9E783F000437F
:1003B0005BE781F0004158E72DE9FE4F81EA030435
:1003C00004F0004421F0004100944FF0000B23F0B2
:1003D000004350EA01045ED052EA03045BD0C3F349
:1003E0000A54C1F30A552C44A4F2F3340194A0FB3F
:1003F0000254C1F3130141F48011C3F3130343F416
:10040000801301FB024400FB034E840A970A44EA6E
:10041000815447EA8357A4FB076802958D0A05FBC0
:1004200007854FEA932C04FB0C542705029D4FEAE5
:10043000065847EA1637B5EB08056EEB070C870E32
:10044000920E47EA811742EA8312A7FB0201B6EB3C
:100450000B0164EB00042B0D43EA0C335E1844EBF4
:100460001C50DA465146E7FB0201C5F313044FEA7C
:100470000B3343EA14534FEA0432019C43EA060368
:10048000A4F10C040294009CCDE900B400F023F91F
:1004900003B0BDE8F08F00200146F9E70EB5C10FAB
:1004A00080EAE0700844CA07002140F233438DE837
:1004B0000E000A460B4600F00EF903B000BD70B501
:1004C000C1F30A5201F000450024C1F3130140F2C8
:1004D000FF3341F480119A4201DA002070BD40F2EE
:1004E00033439A42A2F2334203DC524200F08BF8CB
:1004F00000E090402C43F1D0404270BD00F000423B
:1005000030F000400AD0C10D01F56071C0F3160053
:1005100042EA0151C20840071143704700200146DA
:100520007047000030B5041E71F1000404DB4FF089
:100530000044404264EB0101141E73F1000405DB2A
:100540001C464FF00043524263EB04038B4208BF4A
:10055000824230BD30B5041E71F1000404DB4FF05F
:100560000044404264EB0101141E73F1000405DBFA
:100570001C464FF00043524263EB0403994208BF0C
:10058000904230BD01F0004330B421F0004150EA08
:10059000010206D00A0DA2F56072C1F31301002A10
:1005A00002DC30BC00207047440F44EAC104C100A3
:1005B000E01830BC00EBC25000F047B830B50B4635
:1005C000014600202022012409E021FA02F59D4283
:1005D00005D303FA02F5491B04FA02F52844151E57
:1005E000A2F10102F1DC30BD202A04DB203A00FA3E
:1005F00002F1002070479140C2F1200320FA03F37A
:10060000194390407047202A04DB203A21FA02F077
:100610000021704721FA02F3D040C2F1200291403C
:10062000084319467047202A06DBCB17203A41FAC7
:1006300002F043EAE07306E041FA02F3D040C2F16F
:10064000200291400843194670470029A8BF70470F
:10065000401C490008BF20F00100704710B4B0FAF8
:1006600080FC00FA0CF050EA010404BF10BC704793
:1006700049B1CCF1200421FA04F411FA0CF118BFAD
:10068000012121430843A3EB0C01CB1D4FEA00617C
:100690004FEA102042BF002010BC704700EBC3504F
:1006A00010440029A4BF10BC7047401C490008BF7B
:1006B00020F0010010BC704710B5141E73F1000447
:1006C00008DA401C41F1000192185B411A4301D144
:1006D00020F0010010BD2DE9F04D92469B4611B16E
:1006E000B1FA81F202E0B0FA80F220329046FFF7D0
:1006F0007BFF04460F4640EA0A0041EA0B015346DD
:100700005A46084313D0114653EA010019D0C8F1E4
:1007100040025046FFF777FF05460E4650465946C1
:100720004246FFF761FF084305D0012004E0204660
:100730003946BDE8F08D0020054346EAE0762C43BB
:1007400037430A986305E40AA0EB08000022FD0A7B
:1007500044EA47540A3002D500200146E9E7010582
:1007600010196941DDE9084500196941BDE8F04DFE
:10077000A2E72DE9F04D81EA030404F0004B21F0DB
:10078000004514464FF0000A23F0004150EA0502EC
:1007900020D054EA01021DD0C5F30A570246C5F322
:1007A0001303C1F31300C1F30A5640F4801543F458
:1007B0008013A7EB0608101BD64608F2FD3873EB32
:1007C000050002D308F1010801E092185B41B8F17D
:1007D000000F03DA00200146BDE8F08D00204FF441
:1007E0008011064684460EE0171B73EB050705D300
:1007F000121B63EB050306434CEA010C49084FEA60
:10080000300092185B4150EA0107EDD152EA030033
:1008100012D082EA040083EA0501084305D0101BC8
:10082000AB4106D20122002306E000224FF0004334
:1008300002E06FF0010253101AEB06004CEB085176
:1008400010EB0A0041EB0B01BDE8F04DFFF734BFA0
:10085000C1F30A52C1F3130140F2FF3341F4801196
:100860009A4202DA00200146704740F233439A422E
:10087000A2F2334202DC5242FFF7C5BEFFF7B4BE1C
:10088000064C074D06E0E06840F0010394E80700DD
:1008900098471034AC42F6D3FFF78CFCD0590008CF
:1008A000F05900080EB540F2334102910021CDE924
:1008B00000110A460B46FFF70EFF03B000BDFEE72E
:1008C000704772B6FEE72DE9F0410446876D00F0EF
:1008D00087F9064694F835000025022806D08020C6
:1008E000606584F834500120BDE8F081206801681B
:1008F00021F0160101602068416921F08001416109
:10090000206C08B9A06C20B12068016821F00801B2
:1009100001602068016821F0010101600CE000F035
:100920005FF9801B052807D920206065032084F823
:10093000350084F83450D7E720680068C007EED14E
:1009400094F85C103F208840B860012084F835009E
:1009500084F834500020C7E790F83510022903D0FE
:100960008021416501207047052180F8351000681D
:10097000016821F0010101600020704770B5044654
:1009800000F02EF90546601C02D0044800780444AB
:1009900000F026F9401BA042FAD370BD30000020C1
:1009A0002DE9F84FDFF8F8A1002201240AF1040B29
:1009B00003254FF00F090BF1040E00BF0B6804FA7A
:1009C00002F63340B34270D10F7907F00307012FCD
:1009D00001D0022F16D187684FEA420805FA08FCB9
:1009E00027EA0C07D1F80CC00CFA08FC4CEA070CFB
:1009F000C0F808C04768B7430E79C6F300169640A2
:100A00003E4346600E79F643B6070AD0C7684FEA00
:100A1000420C05FA0CF6B7438E6806FA0CF63E4314
:100A2000C6600E7906F00306022E10D1D60800EB40
:100A30008608D8F8206057074FEAD76C09FA0CF7F8
:100A4000BE430F6907FA0CF73743C8F820700668F1
:100A50004FEA420C05FA0CF7BE430F7907F0030783
:100A600007FA0CF7374307604E6816F4403F1CD076
:100A70004C4E376847F480473760366822F00307EA
:100A800006F480460096484E07EB060CDCF8086832
:100A900097073F0F09FA07F826EA0806DFF80C81E6
:100AA000404503D14FF0000841E072E0DFF80081DB
:100AB000404502D14FF0010839E0DFF8F8804045A9
:100AC00002D14FF0020832E0DFF8EC80404502D15D
:100AD0004FF003082BE0DFF8E480404502D14FF0EF
:100AE000040824E0DFF8D880404502D14FF0050823
:100AF0001DE0DFF8D080404502D14FF0060816E037
:100B0000DFF8C480404502D14FF007080FE0DFF85E
:100B1000BC80404502D14FF0080808E0DFF8B08003
:100B2000404502D14FF0090801E04FF00A0808FAE9
:100B300007F848EA0608CCF80888DAF80060574653
:100B4000D1F804C09E435FEACC3C00D51E433E6012
:100B5000DBF800605F46D1F804C09E435FEA8C3C3E
:100B600000D51E433E60DEF800607746D1F804C031
:100B70009E435FEACC2C00D51E433E60084F0C37E5
:100B80003E68D1F804C09E435FEA8C2C00D51E431A
:100B90003E60521C102AFFF411AFBDE8F88F000030
:100BA000003C014044380240003001400000024057
:100BB0000004024000080240000C02400010024005
:100BC0000014024000180240001C024000200240B5
:100BD000002402400AB1816170470904FBE700006C
:100BE000014880687047000030000020024881689A
:100BF0000278114481607047300000200B4810B526
:100C0000016841F400710160016841F48061016094
:100C1000016841F480710160032000F06FF800204A
:100C200000F006F800F024F8002010BD003C02405F
:100C300070B50D4D04464FF47A712878B1FBF0F091
:100C40000A490968B1FBF0F000F044FB48B9102CE8
:100C500007D200222146501E00F030F800206C60C0
:100C600070BD012070BD0000300000203C0000205D
:100C70000A4808B5016841F480410160006800F449
:100C8000804000900548001F016841F080510160DC
:100C9000006800F08050009008BD00004438024019
:100CA000002809DB00F01F0201219140400980006B
:100CB00000F1E020C0F8001170470000F0B40E4BC6
:100CC0001B680C46C3F30223C3F10705042D00D9AA
:100CD0000425191D072901D2002300E0DB1E01268F
:100CE00006FA05F1491E214099409E40761E1640A5
:100CF0003143F0BC02F0D6BA0CED00E0064900F03A
:100D0000070208684FF6FF03184040EA0220034A32
:100D100010430860704700000CED00E00000FA0589
:100D20002DE9F8431748016841F0805101600068DF
:100D3000154F00F08050012600903E64FFF750FFF1
:100D400005464FF47A78114C05E000BFFFF748FFE5
:100D5000401B40450DD86068C003F7D57E64FFF79F
:100D60003FFF0546464607E0FFF73AFF401BB0420B
:100D700002D90320BDE8F88360688003F4D5002021
:100D8000F8E700004038024000000E4200700040CA
:100D90002DE9F0470E46050065D0DFF81481D8F83C
:100DA0000000F7B200F00F00B04207D288F80070E0
:100DB000D8F8000000F00F00B04254D128683D4C34
:100DC000810712D5400703D5206840F4E050206029
:100DD0002878000703D5206840F460402060206830
:100DE000A96820F0F000084320602878C0072DD0C3
:100DF000304968680839012812D0022813D0032826
:100E000011D00968890700292DDA216821F0030132
:100E100001432160FFF7E4FE814641F2883A0EE08B
:100E200009688903EFE709688901ECE7FFF7D8FE55
:100E3000A0EB0901514502D90320BDE8F0872068E5
:100E4000696800F00C00B0EB810FEFD1D8F800100A
:100E5000404601F00F01B14207D90770006800F069
:100E60000F00B04201D00120E7E72878400705D500
:100E70002068E96820F4E0500843206028780007E3
:100E800006D52068296920F4604040EAC10020604E
:100E900000F038F82168084AC1F30311515CC840DA
:100EA0000649086006480068FFF7C2FE0020C4E754
:100EB000003C024008380240985800083C000020DE
:100EC000340000200448054900680968044AC1F359
:100ED0008221515CC84070473C0000200838024025
:100EE000A85800080448054900680968044AC1F385
:100EF0004231515CC84070473C0000200838024035
:100F0000A8580008154810B5006810F00C021448E5
:100F100013D01449042A0FD0082A0ED10F4C241FD5
:100F20002268236802F03F025B0207D52068C0F305
:100F30008810A0FB010106E0084610BD2168C1F33E
:100F40008811A1FB00010023FFF74CF92168C1F3D0
:100F50000141491C4900B0FBF1F010BD08380240C6
:100F60000024F40040787D012DE9F84F04006ED094
:100F70002078DFF84C93C007A9F104054AD009F1A5
:100F800004000168C1F38101012908D00068C0F3A1
:100F9000810002280AD1D9F80000400206D528684D
:100FA000800337D560680028E1D033E06068B0F591
:100FB000803F10D0B0F5A02F286810D020F48030EA
:100FC0002860286820F4802028606068A8B1FFF7B6
:100FD00007FE06460DE0286840F48030F4E740F450
:100FE00080202860F7E700BFFFF7FAFD801B642828
:100FF00073D828688003F7D50CE0FFF7F1FD0646AB
:1010000005E000BFFFF7ECFD801B6428F0D82868DE
:101010008003F7D42078DFF8AC8280074FF0000A15
:101020003ED5A748001D016811F00C0F08D00068DC
:10103000C0F3810002280BD1D9F80000400207D488
:101040002868800716D5E068012800D112E033E156
:10105000E068B8B10120C8F80000FFF7C1FD0646FE
:1010600005E000BFFFF7BCFD801B0228C0D8286840
:101070008007F7D52868216920F0F80040EAC10010
:1010800028600DE0C8F800A0FFF7AAFD064604E0BE
:10109000FFF7A6FD801B02281FD828688007F7D419
:1010A0002078000722D5864F87486169703771B173
:1010B00001210160FFF794FD064604E0FFF790FD73
:1010C000801B022809D838688007F7D50EE0C0F8E1
:1010D00000A0FFF785FD064605E082E0FFF780FDF2
:1010E000801B02287DD838688007F7D42078400715
:1010F00068D5DFF8CCB100270BF13C0BDBF8000022
:10110000C0000BD4DBF8001041F08051CBF8001088
:10111000DBF80000012700F0805000906B4E306833
:10112000C00510D4306840F480703060FFF758FD7F
:10113000009005E0FFF754FD0099401A022850D8AE
:101140003068C005F6D55E4EA0686C3601280FD019
:101150000528306810D020F001003060306820F0A1
:1011600004003060A068B8B1FFF73AFD00900FE0CE
:10117000306840F00100F4E740F004003060F7E729
:10118000FFF72EFD0099411A41F28830814266D85E
:1011900030688007F4D50EE0FFF722FD009007E0ED
:1011A000FFF71EFD0099411A41F28830814256D85E
:1011B00030688007F4D42FB1DBF8001021F08051A3
:1011C000CBF80010A069C8B33D49091D0968C1F3F7
:1011D000810102294AD00228504607D0C8F8600091
:1011E00000E03CE0FFF7FCFC04463BE04746C8F863
:1011F0006000FFF7F5FC064605E000BFFFF7F0FCD6
:10120000801B02282BD828688001F7D4D4E9070175
:101210000843A16A2E4A490802EB0141626A41EA89
:101220008211084394F82C1040EA0161C9F80010BB
:1012300001203866FFF7D4FC044606E03EE000BF1C
:10124000FFF7CEFC001B022809D828688001F7D5DB
:1012500034E000BFFFF7C4FC001B022802D90320C2
:10126000BDE8F88F28688001F4D427E00128F7D082
:10127000D9F80000E26900F4800191421CD1226A91
:1012800000F03F01914217D147F6C071626A0140F8
:10129000B1EB821F10D1A26A4FF0FF3300F440314E
:1012A00003EB5202B1EB024F06D194F82C1000F080
:1012B0007060B0EB016F01D00120D1E70020CFE7D3
:1012C0000438024000004742800E47420070004050
:1012D0000000FFFF10B5401EB0F1807F01D3012058
:1012E00010BD4FF0E02460610F21601701F0DAFFBC
:1012F0000020A06107202061002010BD70477047CA
:1013000010B590F83C20012A22D0012280F83C2020
:10131000CA688C6822F4407222434C6822F48062CE
:1013200022430C6822F4006222430C6922F48052AA
:1013300022434C6922F400522243C969002322F45B
:1013400080420A4301684A6480F83C30002010BDA6
:10135000022010BD70B590F83C20012A32D0012443
:1013600080F83C40022280F83D2003685A689D685E
:1013700022F070060A6832435A60134B02689A42A0
:1013800014D0B2F1804F11D0104B9A420ED0104BB6
:101390009A420BD00F4B9A4208D00F4B9A4205D07D
:1013A0000E4B9A4202D00E4B9A4204D1496825F066
:1013B00080031943916080F83D40002180F83C1083
:1013C000084670BD022070BD0000014000040040CE
:1013D00000080040000C00400004014000400140B3
:1013E0000018004010B5040003D094F83D0010B17F
:1013F00007E0012010BD002084F83C00204600F0EA
:101400001FF8022084F83D00211D206801F044FCF3
:10141000012084F8460084F83E0084F83F0084F8F8
:10142000400084F8410084F8420084F8430084F8C6
:10143000440084F8450084F83D00002010BD000001
:1014400008B501681748814212D11748016841F078
:10145000080101600068002200F0080000901146B9
:101460003220FFF72BFCBDE808403220FFF718BC04
:101470000D480E4A001D914207D1016841F4003128
:101480000160006800F4003009E0094A914207D188
:10149000016841F480210160006800F48020009020
:1014A00008BD0000000C00404038024000440140EC
:1014B0000048014090F83D10012901D001207047FB
:1014C000022180F83D100168CA6842F00102CA603A
:1014D00000681149884214D0B0F1804F11D00F49F3
:1014E00088420ED00E4988420BD00E49884208D05F
:1014F0000D49884205D00D49884202D00C498842E6
:1015000004D1816801F00701062903D0016841F088
:10151000010101600020704700000140000400400C
:1015200000080040000C0040000401400040014061
:101530000018004070B5044690F83C0000250128D2
:1015400017D0012684F83C60022084F83D00206812
:10155000826822F0770222F47F4282600868502875
:1015600038D00DDC20284FD005DC90B3102811D1E5
:101570004AE0022070BD302846D040280AD13BE026
:1015800060282FD070280DD0B0F5805F03D0B0F563
:10159000005F12D0012584F83D60002084F83C00F3
:1015A000284670BDCB68D1E90121206801F0E5FB38
:1015B0002068816841F0770109E0CB68D1E9012119
:1015C000206801F0DAFB2068816841F48041816085
:1015D000E1E719E0CA684968206801F0A3FC5021DE
:1015E000206806E0CA684968206801F0ACFC602108
:1015F000206801F0CCFBCEE7CA684968206801F09A
:1016000091FC40212068F4E7226801461046F0E78B
:101610002DE9F0410D46040003D094F83D0018B1C7
:1016200008E00120BDE8F081002084F83C0020465D
:1016300000F040F8022084F83D002068816844F200
:10164000070291438160211D206801F025FB22687B
:1016500090689169166A2B68AF69034340F20330C2
:10166000814341EA0721A868EF6908434FF6FC412E
:101670008843E96840EA0720014328692F6A00018E
:1016800040EA0730084369686D6926F0AA0646EA11
:101690000515294393602268906154F8460B016256
:1016A000012004F81F09E0752076E0762077A07508
:1016B0000020B7E770B586B0044614216846FEF7EF
:1016C000C9FD464823680024454902250126834276
:1016D00019D143481430026842F0010202600068E8
:1016E00000F001000590086840F0100008600868EC
:1016F000694600F0100005904FF420600090CDE99D
:101700000154384845E0364A37481032B3F1804F2B
:1017100018D0364EB34243D1136843F0020313602E
:10172000126802F0020205920A6842F001020A60A1
:10173000096801F001010591C0210091CDE9015432
:10174000694647E0136843F001031360126802F032
:10175000010205920A6842F001020A600A6802F07A
:10176000010205920A6842F002020A60096801F06B
:101770000201059120210091CDE90154CDE90346F4
:101780006946FFF70DF908200090CDE9015418488B
:101790006946CDE9034600BFFFF702F906B070BD08
:1017A00014488342FAD1106840F0040010601068B9
:1017B00000F004000590086840F008000860086820
:1017C000694600F0080005904FF440500090CDE9C4
:1017D00001540948CDE90345DEE70000000001405F
:1017E0003038024000100240000002400004004077
:1017F0000004024000080040000C024070B590F860
:101800003E60044690F83F5090F8423090F84320F4
:10181000022021B104290ED0012E1BD114E0012E8B
:1018200018D1012B16D184F83E0084F84200012221
:101830000021206820E0012D0CD1012A0AD184F872
:101840003F0084F8430014E0012D03D1012B01D1A6
:10185000012A01D0012070BD84F83E0084F83F00C9
:1018600084F8420084F8430001220021206801F03E
:1018700077FA01220421206801F072FA20680168D9
:1018800041F001010160002070BD704770B5044651
:10189000006801694FF00005C943890715D4C16884
:1018A000C943890711D4E91E01610120207720680E
:1018B00080698007204602D0FFF7E7FF04E000F0D0
:1018C000F3F8204600F0A4F9257720680169C943A0
:1018D000490717D4C168C943490713D46FF00401FD
:1018E0000161022020772068806910F4407F204643
:1018F00002D0FFF7CAFF04E000F0D6F8204600F05F
:1019000087F9257720680169C943090716D4C1689A
:10191000C943090712D46FF0080101610420207740
:101920002068C0698007204602D0FFF7AEFF04E0C0
:1019300000F0BAF8204600F06BF9257720680169BD
:10194000C943C90617D4C168C943C90613D46FF087
:1019500010010161082020772068C06910F4407FE1
:10196000204602D0FFF791FF04E000F09DF82046EA
:1019700000F04EF9257720680169C943C90708D1ED
:10198000C168C943C90704D1891E0161204600F01E
:10199000A5F920680169C943090609D4C168C9438A
:1019A000090605D46FF0800101612046FFF7A6FC0F
:1019B00020680169C943490609D4C168C943490679
:1019C00005D46FF040010161204600F0FFFA206865
:1019D0000169C94389060BD4C168C943890607D484
:1019E0006FF0200101612046BDE87040FFF787BC21
:1019F00070BD000030B587B0044614216846FEF77C
:101A000029FC2468214D0020214902220323AC42F5
:101A100011D10C6844F004040C60096801F0040161
:101A200005914FF4A0710091CDE90120CDE90303A8
:101A30006946184812E0184DAC4213D10C6844F0C6
:101A400010040C60096801F010010591202100913B
:101A5000CDE90120CDE9030369461048FEF7A0FF58
:101A600007B030BD0E4DAC42FAD10C6844F02004F2
:101A70000C60096801F02001059180210091CDE9F9
:101A80000120CDE9030369460648E7E70004014069
:101A9000303802400008024000400140001002407F
:101AA0000048014000140240704770B5044690F8A9
:101AB0003C0000260D4601280FD0012084F83C0090
:101AC0006AB1042A1DD0082A2FD00C2A3FD0012643
:101AD000002084F83C00304670BD022070BD2068B4
:101AE00001F05EF92068816941F008018161206898
:101AF000816921F004018161206881692A691143AB
:101B000011E0206801F07CF92068816941F40061EE
:101B100081612068816921F4806181612068816927
:101B20002A6941EA02218161D2E7206801F09EF929
:101B30002068C16941F00801C1612068C16921F0D4
:101B40000401C1612068C1692A69114311E020685C
:101B500001F0C0F92068C16941F40061C1612068E9
:101B6000C16921F48061C1612068C1692A6941EAC3
:101B70000221C161ACE710B5040003D094F83D0028
:101B800010B107E0012010BD002084F83C00204681
:101B900000F01EF8022084F83D00211D206801F0AD
:101BA0007BF8012084F8460084F83E0084F83F006A
:101BB00084F8400084F8410084F8420084F843002F
:101BC00084F8440084F8450084F83D00002010BDEE
:101BD00008B50C4A01680C48914207D1016841F0F0
:101BE00002010160006800F0020009E0074A91422A
:101BF00007D1016841F480310160006800F4803051
:101C0000009008BD000401404438024000400140FB
:101C10007047000010B50446022249B104290ED0D5
:101C2000082913D094F84100012816D0012010BDD6
:101C300094F83E000128F9D184F83E200FE094F892
:101C40003F000128F2D184F83F2008E094F84000DA
:101C50000128EBD184F8402001E084F841200122E2
:101C6000206801F07DF816492068164A884201D0A4
:101C7000904203D1436C43F400434364206888429C
:101C800013D0B0F1804F10D00F4988420DD00F49CA
:101C900088420AD00E49884207D0904205D00D49AB
:101CA000884202D00C49884204D1816801F00701C2
:101CB000062903D0016841F001010160002010BD38
:101CC0000000014000040140000400400008004002
:101CD000000C004000400140001800402DE9F04F8A
:101CE000AB492DED028B8DB00068096888427DD12B
:101CF000A84C4FF0000B6088401C6080A088401CFE
:101D000080B2A080E188491CE1800F285CD30025C7
:101D10005E46A4F804B0012000F00CFF9E4FA168BD
:101D2000404247F82100042000F004FFA26807F1B8
:101D3000140848F82200032000F0FCFEA26807F116
:101D4000280949F82200022000F0F4FEA26807F1F9
:101D50003C0141F82200521CA260052A00DBA6606B
:101D60005FF0000057F82020401CC0B21544052841
:101D7000F8D3052295FBF2F0002320621846454671
:101D800055F82060401CC0B233440528F8D393FBBB
:101D9000F2F00023606218464FEA090555F820600A
:101DA000401CC0B233440528F8D393FBF2F0002363
:101DB000A062184651F82050401CC0B22B440528A0
:101DC000F8D393FBF2F0E06260889FED748B1428E7
:101DD0007ED3A4F802B0A069FEF790FB05460E463C
:101DE0006069FEF78BFB8A46814600E0CBE0206904
:101DF000FEF784FB07468846E068FEF77FFBCDE9E7
:101E00000A5641EC100BE06ACDF81890CDE907A016
:101E1000A06A0297CDE90380606A009053EC102B12
:101E200060A0216A01F016FA206AFEF737FB41EC48
:101E3000100B5948503000F003FE51EC100BFEF728
:101E4000A1FB00EE100A544853EC182BB0EEC00A68
:101E5000503084ED030A90ED000B51EC100BFEF7AF
:101E600061FB94ED030A03D2B1EE400A84ED030A4C
:101E700003F038F8606AFEF711FB41EC100B46489E
:101E8000883000F0DDFD51EC100BFEF77BFB00EE1F
:101E9000100A414853EC182BB0EEC00A883084ED8C
:101EA000040A90ED000B51EC100BFEF73BFB94ED98
:101EB000040A03D2B1EE400A84ED040A03F050F89C
:101EC000A06AFEF7EBFA41EC100B3348C03000E09B
:101ED00044E000F0B5FD51EC100BFEF753FB00EEB3
:101EE000100A2D4853EC182BB0EEC00AC03084ED18
:101EF000050A90ED000B51EC100BFEF713FB94ED6F
:101F0000050A03D2B1EE400A84ED050A03F060F839
:101F1000E06AFEF7C3FA41EC100B1F48F83000F0FE
:101F20008FFD51EC100BFEF72DFB00EE100A1A4846
:101F300053EC182BB0EEC00AF83084ED060A90ED91
:101F4000000B51EC100BFEF7EDFA94ED060A03D2EC
:101F5000B1EE400A84ED060A03F078F8E0880A281A
:101F600011D3A4F806B020785D4605280BD10022D5
:101F70009620E16902F0F4FAE069C01CE061B0F576
:101F8000B47F00DBE5610DB0BDEC028BBDE8F08FE6
:101F900098020020000000204800002000000000FF
:101FA0000000000025642C20252E32662C2025649C
:101FB0002C20252E32662C2025642C20252E3266DE
:101FC0002C2025642C20252E32660A00704770478D
:101FD000016882B00A68D243120702D40A684968CD
:101FE00000910122014902B000F0DEB9000000209A
:101FF000F8B5016804460868CA684B6910F00F0F0D
:102000004FF0000559D003F0010602F490773743F2
:1020100065D0C10705D0D10503D5216C41F0010180
:102020002164410705D5D90703D0216C41F0020195
:102030002164810705D5D90703D0216C41F0040143
:102040002164010707D502F02001314303D0216C40
:1020500041F008012164216C00293AD0800604D5A2
:10206000900602D5204600F0B6FF20684069216C3A
:10207000C0F38010090700D460B3204600F084FF4D
:1020800020684069400621D52068143050E8001FC0
:1020900021F0400140E80012002AF5D1A06BA8B160
:1020A0006C490165A06BFEF757FC002811D0A06BAE
:1020B000016D01B0BDE8F040084783060FD59306D7
:1020C0000DD52046BDE8F84000F085BF2046FFF75B
:1020D0007FFFF8BD2046FFF77BFF2564F8BD266B28
:1020E0002023012E79D1C60677D5D60675D5086886
:1020F000486800904869400640D5A16B0868406870
:102100000004000CEAD0A28D8242E7D9E085C869BC
:10211000B0F5807F2DD020680C3050E8001F21F4EE
:10212000807140E80012002AF5D12068143050E890
:10213000001F21F0010140E80012002AF5D12068BB
:10214000143050E8001F21F0400140E80012002A3E
:10215000F5D184F83E30256320680C3050E8001F2C
:1021600021F0100140E80012002AF5D1A06BFEF723
:10217000AAFBA08DE18D401A81B229E0A08DE18DEE
:10218000401A81B2E08D0028A8D00029A6D020688E
:102190000C3050E8002F22F4907240E80026002E08
:1021A000F5D12068143050E8002F22F0010240E8F9
:1021B0000026002EF5D184F83E30256320680C30CF
:1021C00050E8002F22F0100240E80023002BF5D148
:1021D0002046FFF7FCFEF8BDFFE705062BD51506E8
:1021E00029D594F83D002128F5D1A068B0F5805F8D
:1021F00001D12069B0B1206A411C216221680078B8
:102200004860E08C401E0004000CE084E3D12068AC
:10221000C16821F08001C1602068C16841F04001BF
:10222000C160D8E7206A0088C0F308004860206ACF
:10223000801C2062E5E74006CDD55006CBD5CA68A4
:10224000204622F04002CA6084F83D3000F041F997
:10225000C1E70000792F000870B5040004D094F89D
:102260003D00002510B106E0012070BD84F83C500F
:10227000204600F023F8242084F83D002068C1683F
:1022800021F40051C160204600F006FF206801697A
:1022900021F4904101612068416921F02A014161E6
:1022A0002068C16841F40051C1602564202084F891
:1022B0003D0084F83E00002070BD0000F0B587B0FE
:1022C000044614216846FDF7C5FF314A2168002401
:1022D000304802250326914238D12E4910310A6830
:1022E00042F480120A60096801F4801105910168C6
:1022F00041F004010160016801F0040105910168E9
:1023000041F008010160006802AA00F00800059091
:10231000E802CDE90005082782E8D00069461E489A
:10232000FEF73EFB0420CDE9000502AA694682E8DB
:10233000D0001A48FEF734FB002211463520FEF784
:10234000BDFC3520FEF7ACFC07B0F0BD144A91424D
:10235000FAD1104914310A6842F010020A60096883
:1023600001F010010591016841F001010160006870
:10237000029400F0010005904FF4C060CDE9000523
:102380000720CDE9036069460648FEF709FBDBE755
:10239000005000403038024000080240000C02406B
:1023A000001001400000024090F83E30202B0ED17A
:1023B00059B152B190F83C30012B08D0012380F87C
:1023C0003C300023036300F0EDBE01207047022083
:1023D000704700002DE9F0410D4801780DA000F094
:1023E00039FF002520260C4FDFF8308007E0641C01
:1023F00024B2C82C03DD87F83E6088F83C500122E7
:1024000003490648FFF7D0FF0028F0D1BDE8F0816E
:102410000000002025640A0044040020000400207D
:102420002DE9F843044690F83D001F4616460D4638
:1024300020284CD1C5B1BEB194F83C00012846D04B
:10244000012084F83C004FF00008C4F840802120AF
:1024500084F83D00FEF7C4FBA6848146E684A068AC
:10246000B0F5805F03D004E00120BDE8F883206967
:1024700028B12E465FF0000584F83C800EE000266F
:10248000FAE78021204600F0A8FEA0B9AEB116F808
:10249000010B21684860E08C401EE084E08C4B46D4
:1024A0004FF0000200970028EBD14FF0400120468A
:1024B00000F093FE30B10320D7E735F8020BC0F3EC
:1024C0000800E6E7202084F83D000020CDE7022048
:1024D000CBE77047FEE700002DE9F04F87B01421ED
:1024E0006846FDF7B7FE44480024016841F010013A
:1024F0000160016801F010010591016841F02001BF
:102500000160016801F020010591016841F080013E
:102510000160016801F080010591016841F004014A
:102520000160016801F004010591016841F00101B9
:102530000160016801F001010591016841F00801A5
:102540000160016801F008010591016841F0020194
:1025500001600068DFF8A48000F002004EF2400540
:102560000590002229464046FEF734FBDFF89090A4
:10257000002240214846FEF72DFBDFF888A040F2FC
:102580008226002231465046FEF724FBDFF878B061
:102590004FF4E067002239465846FEF71BFB0095D2
:1025A0000125CDE90154694640460394FEF7F8F948
:1025B00040200090CDE90154694648460394FEF757
:1025C000EFF90096CDE90154694650460394FEF7B1
:1025D000E7F90097CDE90154694658460394FEF7A0
:1025E000DFF90820CDE90004694658460294FEF759
:1025F000D7F907B0BDE8F08F303802400010024034
:102600000014024000080240000C02400B4810B5C4
:102610000949016009214160002140F26442C0E99A
:10262000021201618161FEF7DDFE002803D0BDE8E2
:102630001040FEF746B910BD004401407003002071
:1026400010B588B01C216846FDF704FE15481449F2
:10265000002401600921C0E9011440F26441C0E98D
:1026600003148461FEF7BEFE08B1FEF72AF90D4897
:10267000FFF781FA08B1FEF724F96020CDE90004E4
:1026800002940022694607480494FFF70EFA08B145
:10269000FEF717F90348FFF7ADF908B010BD0000C9
:1026A00000480140B803002010B58CB024216846D2
:1026B000FDF7D0FD00241648099414490A940160DE
:1026C0000121C0E901144FF6FF72C0E903244461FF
:1026D0008461CDE9001405200291CDE90340CDE9E4
:1026E0000541CDE9074069460948FEF791FF08B169
:1026F000FEF7E7F8099409A905480A94FEF72AFEAF
:10270000002801D0FEF7DDF80CB010BD000001403C
:102710007801002010B58CB024216846FDF79AFDA1
:102720000024154809944FF080410A94016001216A
:10273000C0E901148A1EC0E903248461CDE90014B4
:1027400005200291CDE90340CDE90541CDE90740DF
:1027500069460948FEF75CFF08B1FEF7B2F8099434
:1027600009A905480A94FEF7F5FD002801D0FEF7F7
:10277000A8F80CB010BD0000C001002010B58CB04E
:1027800024216846FDF766FD002416480994144983
:102790000A9401600121C0E901144FF6FF72C0E9FB
:1027A00003248461CDE9001405200291CDE90340A2
:1027B000CDE90541CDE9074069460A48FEF728FF03
:1027C00008B1FEF77EF8099409A906480A94FEF7B5
:1027D000C1FD002801D0FEF774F80CB010BD000058
:1027E000000400400802002010B58CB02421684687
:1027F000FDF730FD00241648099414490A9401603D
:102800000121C0E901144FF6FF72C0E9032484617D
:10281000CDE9001405200291CDE90340CDE9054141
:10282000CDE9074069460A48FEF7F2FE08B1FEF717
:1028300048F8099409A906480A94FEF78BFD002878
:1028400001D0FEF73EF80CB010BD000000080040BB
:102850005002002010B586B000241748009401945F
:10286000029403940494134905940160B321C0E9D0
:10287000011440F2E731C0E903148461FEF7B2FDB0
:1028800008B1FEF71EF84FF48050009069460A48E0
:10289000FEF750FE08B1FEF714F8049404A90648A8
:1028A0000594FEF757FD002801D0FEF70AF806B0A0
:1028B00010BD0000000C00409802002010B592B03E
:1028C00000240F941C2168461094FDF7C3FC2021BE
:1028D00007A8FDF7BFFC2548234901600921C0E98D
:1028E000011440F26441C0E9031444618461FFF7BC
:1028F00042F908B1FDF7E5FF0F940FA91B481094AA
:10290000FEF728FD08B1FDF7DCFF60200090702085
:10291000CDE9010403940494059400226946134808
:102920000694FFF7C2F808B1FDF7CBFF082269460D
:102930000E480194FFF7B9F808B1FDF7C2FF0794FC
:10294000089409944FF400500A94CDE90B4007A96C
:1029500006480E94FEF7D4FC08B1FDF7B2FF034819
:10296000FFF748F812B010BD00040140E00200205B
:1029700010B588B01C216846FDF76CFC124811495F
:10298000002401600921C0E9011440F26441C0E95A
:1029900003148461FFF7EFF808B1FDF792FF6020A0
:1029A000CDE9000402940022694607480494FFF729
:1029B0007CF808B1FDF785FF0348FFF71BF808B066
:1029C00010BD000000400140280300200C4810B555
:1029D0000A4901604FF4E1314160002181600C221D
:1029E000C160C0E904128161C161FFF735FC0028B4
:1029F00003D0BDE81040FDF764BF10BD005000409B
:102A0000000400200C4810B50A4901604FF4E13180
:102A10004160002181600C22C160C0E90412816123
:102A2000C161FFF719FC002803D0BDE81040FDF795
:102A300048BF10BD0010014044040020FEE7FEE73F
:102A400010B504462DED068B53EC102B90ED001BBA
:102A50009FED329B9FED33AB51EC110BFDF7A6FCC4
:102A600094ED0C0B41EC180B53EC192B51EC100BA3
:102A7000FDF770FD01D284ED0C9B94ED0C0B53EC33
:102A80001A2B51EC100BFDF74DFD01D284ED0CAB70
:102A900094ED0C0B53EC182B51EC100BFDF7E5FBF0
:102AA00041EC1A0B84ED0CAB94ED0A0B94ED089BF2
:102AB00053EC102B51EC190BFDF778FC84ED0A9BBD
:102AC00084ED088B41EC100B94ED061B53EC102B9E
:102AD00051EC110BFDF770FC94ED040B41EC190B5C
:102AE00053EC1A2B51EC100BFDF766FC94ED020B26
:102AF00041EC1A0B53EC182B51EC100BFDF75CFC5E
:102B000053EC1A2BFDF7B1FB53EC192BFDF7ADFB82
:102B1000BDEC068B41EC100B10BD00000000000066
:102B20000040AF40000000000040AFC03821FDF77A
:102B300091BB704700210F2826D2DFE800F025085E
:102B40000A0D0F11131517191B1D1F212600114AFD
:102B50001CE04FF0804219E00F4A12E00F4A10E0EB
:102B60000F4A0EE00F4A11E00F4A0AE00F4A08E050
:102B70000F4A0BE00F4A04E00F4A02E00F4A00E060
:102B80000F4A1068116000B270470E4A506A5162D5
:102B900000B27047000001402404004024080040B7
:102BA000240C004000100040241400402404014084
:102BB00000400140244401402448014024180040C2
:102BC000241C0040002000407047FEF70FB80000B2
:102BD00030B593B030216846FDF73CFB14210CA8BA
:102BE000FDF738FB20480025016841F08051016065
:102BF000006800F0805011901C48016841F4404189
:102C000001600068022400F440401190012003900C
:102C100010200490009406940820CDE90750B420B9
:102C2000CDE9090404200B906846FEF79DF908B130
:102C300072B6FEE7FEF774F808B172B6FEE70CA9AB
:102C40000F2081E831004FF4A0500F904FF48050D6
:102C5000109005210CA8FEF79BF8002801D072B651
:102C6000FEE713B030BD0000403802400070004065
:102C70000548016841F47001016003494FF00060AC
:102C8000803908607047000088ED00E00148FEF7D9
:102C9000FDBD000098020020F0B50268254C264DCD
:102CA000264E274F274B4FF0804CA04209D060455D
:102CB00007D0A84205D0B04203D0B84201D0984214
:102CC00004D122F0700E4A6842EA0E02A0421BD0E4
:102CD000604519D0A84217D0B04215D0B84213D0E1
:102CE000984211D0184DA8420ED0184DA8420BD0D2
:102CF000174DA84208D0174DA84205D0164DA8423E
:102D000002D0164DA84203D122F44075CA682A4366
:102D10004D6922F080022A4302608A68C2620A6812
:102D20008262A04201D0984201D109690163012168
:102D30004161F0BD00000140000400400008004077
:102D4000000C0040000401400040014000440140EC
:102D50000048014000180040001C004000200040D6
:102D600010B501F01F030121046A99408C430462ED
:102D7000016A9A401143016210BD10B5846842EAAD
:102D8000032224F47F440A432243826010BD8268F8
:102D900022F070020A4342F0070181607047000090
:102DA000F0B5026A22F001020262036A4268846995
:102DB000124E24F073050C682C4323F002058B6837
:102DC0002B430D4DA84201D0B04205D123F0080796
:102DD000CB683B4323F00403A84201D0B04205D1A5
:102DE0004D6922F4407215438A692A434260846126
:102DF000496841630362F0BD0000014000040140E6
:102E0000F0B5026A22F010020262026A4368846925
:102E10000D6824F4E64444EA05248D6822F020027B
:102E200042EA05120F4D104EA84201D0B04206D121
:102E3000CF6822F0800242EA071222F04002A84244
:102E400001D0B04207D14D6923F4406343EA8503C2
:102E50008D6943EA85034360846149688163026246
:102E6000F0BD00000000014000040140F0B5026A1E
:102E700022F480720262026A4368C46922F400721A
:102E800024F073050C68124E2C438D6842EA05222B
:102E90000E4DA84201D0B04206D1CF6822F40062A4
:102EA00042EA072222F48062A84201D0B04207D150
:102EB0004D6923F4405343EA05138D6943EA051332
:102EC0004360C4614968C1630262F0BD0000014013
:102ED0000004014030B5026A22F480520262046AA2
:102EE0004268C3690D6823F4E64343EA05238D680D
:102EF00024F4005444EA0534084DA84202D0084D99
:102F0000A84204D14D6922F4804242EA851242600F
:102F1000C36149680164046230BD000000000140E3
:102F20000004014010B5036A046A24F0010404623D
:102F3000846924F0F00444EA021423F00A020A43EC
:102F40008461026210BD10B5036A23F010030362AE
:102F50008369046A23F4704343EA023224F0A00335
:102F600043EA01118261016210BD00000148FFF7D0
:102F70003FB800000004002010B5806B0021C1851F
:102F8000C184FFF725F810BD01680C3151E8002F0E
:102F900022F4907241E80023002BF5D1016814312E
:102FA00051E8002F22F0010241E80023002BF5D167
:102FB000016B012909D101680C3151E8002F22F081
:102FC000100241E80023002BF5D1202180F83E10AB
:102FD00000210163704708B590F83E10222901D006
:102FE000022008BD82684FF480539A4201D10169E2
:102FF00021B1816A9A421BD04AB10AE00268816A13
:103000005268C2F308020A80816A891C08E00269DA
:1030100072B10268526802F07F020A70816A491C2C
:103020008162C18D491E0904090CC18503D019E0D4
:1030300002685268F1E70168CA6822F02002CA609B
:103040000168CA6822F48072CA6001684A6922F085
:1030500001024A61202180F83E10016B012903D052
:10306000FFF7B8F9002008BD0021016301680C31A9
:1030700051E8002F22F0100241E80023002BF5D187
:1030800001680A68D20602D50A6849680091818DF4
:10309000FEF79DFFE6E7000070B504460068016991
:1030A000E26821F44051114301612169A068E2699D
:1030B00008436169114308432168CA6849F20C63F7
:1030C0009A430243CA6020684169A26921F44071B1
:1030D0001143416131492068884202D03049884219
:1030E00002D1FDF7FFFE01E0FDF7ECFEE2690023EF
:1030F000192164253226B2F5004F626828D0A0FB62
:103100000101930F9200FDF76DF80146B0FBF5F059
:103110006FF01802504301EB800006EB0010B0FB8B
:10312000F5F000F0F002B1FBF5F002EB0012B1FB9C
:10313000F5F06FF01803584301EB800006EB001028
:10314000B0FBF5F000F00F0021681044886070BDFE
:10315000A0FB010192185B41FDF744F80146B0FB6A
:10316000F5F00201B1FBF5F06FF01803584301EBE5
:10317000800006EBC000B0FBF5F000F0F80002EBB9
:103180004002B1FBF5F0584301EB800006EBC000B4
:10319000B0FBF5F000F00700D6E70000001001409A
:1031A0000014014081628285C285002101642222CF
:1031B00080F83E2080F83C100168CA6842F48072B2
:1031C000CA6001684A6942F001024A610068C16848
:1031D00041F02001C160002070472DE9F041984680
:1031E00017460E460446069D27E0681C25D02DB1E3
:1031F000FDF7F6FCA0EB0800A8421ED920680C30B1
:1032000050E8001F21F4D07140E80012002AF5D1E7
:103210002068143050E8001F21F0010140E800123E
:10322000002AF5D1202084F83D0084F83E000020DB
:1032300084F83C000320BDE8F0812068006836EA8D
:10324000000004D00020B842CFD00020F3E70120D6
:10325000F9E7FEE70FB4054B10B503A9044A02983D
:1032600000F0E6FD10BC5DF814FB00008946000884
:103270004000002003B401984100009850EAC120AA
:1032800018BF04204A0D18BF40F0010040F2FF7241
:10329000B2EB515F08BF40F00200012808BF0520D3
:1032A00002B070470907090E002804DB00F1E02096
:1032B00080F80014704700F00F0000F1E02080F863
:1032C000141D70470000000010B52F499FED2C1B06
:1032D0002DED020B84B0059820F000408842D8BF45
:1032E0009DED040B2DDD2949884209D1049840B990
:1032F0004FF0010000F0D4FC00F0A2FC06B010BDBD
:1033000005DB9DED040B00F08FFC06B010BD684698
:103310009DED040B00F0A0F810F0030004BF9DED3C
:10332000021B9DED000B0CD001280ED09DED021B61
:103330009DED000B022817D0012000F0DDFB06B048
:1033400010BD00F0A5FA06B010BD9DED021B9DED6D
:10335000000B012000F0D0FB51EC100B81F000417C
:1033600006B041EC100B10BD00F092FA51EC100BBE
:1033700081F0004106B041EC100B10BD00000000D0
:103380000000000000000000FB21E93F0000F07F8A
:1033900010B52F499FED2C1B2DED020B84B0059825
:1033A00020F000408842DCBF00209DED040B32DDA0
:1033B0002849884209D1049840B94FF0010000F033
:1033C0006FFC00F03DFC06B010BD05DB9DED040B6D
:1033D00000F02AFC06B010BD68469DED040B00F01D
:1033E0003BF810F0030011D0012818D09DED021B0E
:1033F0009DED000B02281AD000F04AFA51EC100B98
:1034000081F0004106B041EC100B10BD9DED021B98
:103410009DED000B012000F06FFB06B010BD9DED8F
:10342000021B9DED000B00F033FA06B010BD012029
:1034300000F062FB51EC100B81F0004106B041EC52
:10344000100B10BD00000000000000000000000094
:10345000FB21E93F0000F07F2DE9F14F04462DEDFF
:10346000020B2DED088B8AB09FEDE70B80ED020B70
:10347000139EE74826F0004585420ADC9DED120BBD
:10348000002084ED000B0AB0BDEC088B03B0BDE852
:10349000F08FE0489FEDE0AB9FEDE1BBA84247DD38
:1034A000E14F9FEDE39B9FEDE48B9DED120B53EC01
:1034B0001A2B51EC100B002E1CDDFCF777FF41ECB2
:1034C000100BBD4208D053EC1B2B51EC100BFCF73A
:1034D0006DFFC4E900010BE053EC192B51EC100B0C
:1034E000FCF764FF53EC182BFCF760FFC4E9000104
:1034F0000120C8E7FCF7B9FE41EC100BBD4208D033
:1035000053EC1B2B51EC100BFCF7AFFEC4E9000190
:103510000BE053EC192B51EC100BFCF7A6FE53EC0F
:10352000182BFCF7A2FEC4E900014FF0FF30AAE718
:10353000C348A84279DB9DED120B51EC100B01F052
:1035400097F841EC180B9FEDC00B53EC102BFCF7D8
:1035500033FF9FEDBF1B53EC112BFCF786FEFCF7EE
:10356000AEFF0746FCF79AFF41EC190B53EC1A2B00
:10357000FCF722FF53EC182BFCF71BFF41EC180B58
:1035800053EC1B2B51EC190BFCF716FFDFF8C8A20C
:1035900041EC100B4FEA15580125FA4453EC102B5F
:1035A00051EC180BFCF702FF032DC4E900013DD0DC
:1035B000C1F30A5005EB4511A8EB00001139814217
:1035C00034DA0AEB051BB0EE48AA9BED000BF0EED7
:1035D00068AA53EC102B51EC190BFCF7EDFE41ECF3
:1035E0001B0B51EC1A0B53EC1B2BFCF7DFFE41ECD1
:1035F000180B51EC1A0B53EC182BFCF7D7FE53ECBD
:103600001B2BFCF7D3FE9BED020B41EC1A0B53EC8A
:10361000102B51EC190BFCF7CFFE53EC1A2BFCF7D7
:10362000C5FE41EC100B6D1CB8E70EE0002EA8BFE4
:103630003846BFF628AF94ED000B51EC100B81F02B
:103640000041C4E9000178421DE7C6F3130040F4CD
:10365000801EC6F30A50A0F2F530471100F01F0596
:10366000C5F12000DDF848B00890002006900790D2
:103670000520EC467949002D07EB0002794408BF8C
:1036800051F8221009D051F8223001EB8201AB40F1
:103690004A68089922FA01F11943A1FB0E26A1FB01
:1036A0000B131A449A4234BF0123002303EB06088C
:1036B0000CEB8003D3E901A60E448E4234BF0121F6
:1036C000002192448A4411B1924502D903E0924507
:1036D00001D2012100E00021C3E901A641444CF8D8
:1036E0002010011EA0F10100C4DC029800F100507E
:1036F000850F0298DDE903678000DDF81480FCF790
:10370000CDFE41EC1A0B3046FDF7CCF89FED541B73
:1037100053EC112BFCF750FE41EC1B0B3846FDF728
:10372000C1F89FED511B53EC112BFCF745FE41EC0A
:10373000180B4046FDF7B6F89FED4D1B53EC112BCF
:10374000FCF73AFE41EC190B51EC180B53EC192B1A
:10375000FCF78BFD53EC1B2BFCF787FD53EC1A2B6E
:10376000FCF783FDCDE90801002008909DED080BD2
:1037700053EC1A2B51EC100BFCF718FE53EC1B2BDF
:10378000FCF714FE53EC182BFCF710FE53EC192B2E
:10379000FCF70FFE9FED381B53EC112BFCF70CFED2
:1037A0009FED370B41EC180B53EC102B9DED080BE4
:1037B00051EC100BFCF700FE53EC182BFCF755FDF9
:1037C0009FED310B41EC180B53EC102B9DED080BCA
:1037D00051EC100BFCF7F0FD53EC182BFCF745FDFA
:1037E00041EC100B139810F0004F06D06D4251ECD5
:1037F000100B81F0004141EC100B284684ED000BCA
:1038000041E6000000000000000000000000000091
:10381000FB21E93F7CD9024000004054FB21F93FE5
:103820003163621A61B4D03DFB21F93F0000000012
:103830000000601A61B4D03D7370032E8A19A33B57
:10384000FB2139410000000083C8C96D305FE43FAF
:10385000000000000000E03F422300009022000032
:10386000000000000000103E000000000000103CBE
:10387000000000000000103A182D4454FB21F93DCF
:103880003326A611460B113C00000054FB21F93DE4
:1038900010B52DED040B2DED088B82B0B0EE419AE2
:1038A000F0EE619A0B9820F000449FED4BABB4F121
:1038B000795F11DA9DED0A0B51EC100BFCF7FFFD5F
:1038C000002801BFB0EE4A0AF0EE6A0A02B0BDEC71
:1038D000088B04BF04B010BD9DED0A0B53EC102BF8
:1038E00051EC100BFCF768FD41EC180B3C4806212D
:1038F000B0EE480AF0EE680A784400F081F853EC24
:10390000182B51EC100BFCF757FD9DED0A0B41EC09
:103910001B0B53EC192B51EC100BFCF74DFD41EC3C
:10392000190B53EC1B2B51EC180BFCF745FD53EC1A
:10393000192BFCF73BFD9FED2C0B41EC190B53ECC5
:10394000102B51EC180BFCF737FD41EC100B2848FD
:10395000844210DA53EC192B51EC100BFCF726FDC6
:1039600053EC1A2BFCF725FD41EC100B02B0BDEC1B
:10397000088B04B010BD1F48A042BCBF9FED1E1BAA
:103980008DED001B06DBA4F50010019000200090D7
:103990009DED001B51EC100B53EC112BFCF706FDB9
:1039A0009DED000B41EC180B53EC102B51EC1A0B56
:1039B000FCF7FCFC41EC1A0B53EC192B51EC180BE7
:1039C000FCF7F4FC53EC1A2BFCF7F3FC41EC100B66
:1039D000CCE7000000000000000000000000F03F05
:1039E000B41F000000000000000000000000E03FE5
:1039F0003333D33F0000E93F000000000000D23F16
:103A000070B504462DED028B4D1E00EBC500B0EEE7
:103A1000408AF0EE608A90ED000B35F0060017D07A
:103A200053EC182B51EC100BFCF7C6FC41EC100BBF
:103A30006D1E04EBC50090ED001B51EC100B53EC18
:103A4000112BFCF712FC41EC100B35F00600E7D10E
:103A5000022D36D0042D1CD0062D1CBFBDEC028BD0
:103A600070BD53EC182B51EC100BFCF7A5FC94ED3A
:103A70000A1B53EC112BFCF7F8FB53EC182BFCF74B
:103A80009BFC94ED081B53EC112BFCF7EEFB41EC77
:103A9000100B53EC182B51EC100BFCF78DFC94ED34
:103AA000061B53EC112BFCF7E0FB53EC182BFCF737
:103AB00083FC94ED040B53EC102BFCF7D6FB41EC8C
:103AC000100B53EC182B51EC100BFCF775FC94ED1C
:103AD000021B53EC112BFCF7C8FB53EC182BFCF723
:103AE0006BFC94ED001B53EC112BFCF7BEFBBDEC03
:103AF000028B41EC100B70BD31B504462DED040B6B
:103B00002DED0A8BB0EE41BAF0EE61BA0B989DED47
:103B10000A0B20F00040B0F1795F0DDA51EC100B88
:103B2000FFF7A8FB042808BF00F09AF89DED0A0BE8
:103B3000BDEC0A8B05B030BD53EC102B51EC100BD3
:103B4000FCF73AFC41EC180B9DED0A0B53EC182BDB
:103B500051EC100BFCF730FC41EC190B2C48B0EE8B
:103B6000480AF0EE680A05217844FFF749FF9FED07
:103B70002ACBB0EE40AAF0EE60AA9CB353EC1C2B0B
:103B800051EC190BFCF718FC41EC1C0B53EC1A2BF5
:103B900051EC190BFCF710FC9FED210B41EC190BBC
:103BA00053EC102B51EC1B0BFCF706FC53EC192BC0
:103BB000FCF7FCFB53EC182BFCF7FEFB53EC1B2B28
:103BC000FCF7F4FB53EC1C2BFCF7F0FB9DED0A1B00
:103BD00053EC112BFCF7EDFBBDEC0A8B05B041EC6F
:103BE000100B30BDFFE753EC1A2B51EC180BFCF710
:103BF000E3FB53EC1C2BFCF738FB53EC192BFCF7C5
:103C0000DBFB9DED0A1B53EC112BFCF72EFBE3E7CE
:103C10003C1E000000000000495555555555C5BFD4
:103C2000000000000000E03F10B553EC102B51ECF9
:103C3000100BFCF71AFB41EC100B10BD000000004C
:103C40009FED050B10B553EC102B51EC100BFCF74E
:103C500090FD41EC100B10BD0000000000000000C2
:103C60009FED050B10B553EC102B51EC100BFCF72E
:103C7000A3FB41EC100B10BD000000000000001081
:103C800002E008C8121F08C1002AFAD17047704725
:103C9000002001E001C1121F002AFBD17047000083
:103CA0000149086070470000440000202DE9FF5FD3
:103CB00082B00021DDE90430020DDDF840B003439D
:103CC00018D044F61050A2F2FF3242431514119856
:103CD00001281FD0A5EB0B00401C5FEA000A4FF043
:103CE00000064E4FDFF83891B046504615D5CAF160
:103CF000000413E0119801244AA3012801D16FEABE
:103D00000B010298119AC0E90031C0E9024206B0E5
:103D1000BDE8F09FCBF10000DFE704460021404AF8
:103D2000491842EB0450CDE9001012E0E00707D03B
:103D300032463B4640464946FCF73EFB80468946B4
:103D400032463B4610461946FCF736FB06460F4600
:103D50006410002CEAD1DDE90401DDE90023BAF1A9
:103D6000000F06DAFCF728FB42464B46FCF724FB23
:103D700005E0FCF7FEFC42464B46FCF7FAFC044625
:103D80000E460022284BFCF7E5FB03D84FF0FF302E
:103D9000014607E00022254B20463146FCF765FA34
:103DA000FCF756FD102409E0002C0ADB0A22002350
:103DB000FCF718FA039B30321A55641E50EA0102D0
:103DC000F2D1641C039AC4F111031444119A012A1C
:103DD00003D0012208430DD10AE0084304D000209B
:103DE0004FF0110B119072E7A3EB0B056D1E0DE068
:103DF0005B4504DD4FF0000205F1010504E003DA44
:103E00004FF00002A5F10105002AECD002981199AB
:103E1000C0E90231C0E9004579E700000000144024
:103E20000000F03F300000000000F0430000E03FE1
:103E30002DE9FF4F95B09B468946064600250FE2C7
:103E4000252877D100242746F84A0121059400E06F
:103E5000044316F8013F203B01FA03F01042F7D16A
:103E600030782A2811D06FF02F033078A0F130027B
:103E7000092A16D8059A44F0020402EB820203EBE9
:103E800042021044761C0590EFE759F8042B059286
:103E9000002A03DA504244F40054059044F002042E
:103EA000761C30782E2816D116F8010F44F0040441
:103EB0002A280DD06FF02F023078A0F13003092BA3
:103EC00009D807EB870302EB4303C718761CF3E717
:103ED00059F8047B761C30786C280FD006DC4C280F
:103EE00017D068280DD06A2814D104E0742810D0A7
:103EF0007A280FD10DE044F400140AE044F4801451
:103F000001E044F440147278824202D104F5801436
:103F1000761C761C307866280BD013DC582877D0B6
:103F200009DC002875D04528F6D04628F4D047286B
:103F30001AD19DE118E0632835D0642879D065282E
:103F400012D195E1702873D008DC6728F1D0692878
:103F50006FD06E280DD06F2806D1B5E073282CD015
:103F6000752875D0782874D05A46179990476D1CDB
:103F700075E1C4F30250022809D003280DD0D9F806
:103F8000001004280DD00D6009F1040967E1D9F88B
:103F90000010EA17C1E90052F6E7D9F800100D80C9
:103FA000F2E70D70F0E719F8041B8DF800100020FF
:103FB0008DF80100EA46012003E059F804AB4FF008
:103FC000FF3061074FF0000102D40DE008F101015C
:103FD0008846B9420FDA8045F8DB1AF80810002944
:103FE000F4D108E008F1010188468142FADB1AF8B1
:103FF00008100029F6D105985B46A0EB080721467A
:104000003846179A00F094FA284400EB080507E0B8
:104010004DE029E10DE01AF8010B5A461799904737
:10402000B8F10108F7D25B4621463846179A13E1EA
:1040300042E00A220092C4F302524FF0000A022A20
:1040400008D059F804CB032A4FEAEC710AD00DE0EE
:1040500029E02AE009F1070121F00702F2E802C194
:10406000914609E00FFA8CFC4FEAEC71042A03D167
:104070004FFA8CFC4FEAEC71002907DA0A4600215E
:10408000DCF1000C61EB02012D2202E0220504D5D7
:104090002B228DF80420012203E0E20701D0202228
:1040A000F7E7904659E00A2102E010220DE01021C6
:1040B0004FF0000A00910BE010224FF0000A44F08C
:1040C00004040827009203E008224FF0000A00923F
:1040D000C4F30252022A05D059F804CB0021032A66
:1040E00008D009E009F1070121F00702F2E802C156
:1040F000914605E01FFA8CFC042A01D10CF0FF0C5C
:104100004FF00008220728D5702806D0009B83F0C6
:10411000100353EA0A0305D00EE040228DF8042074
:10412000012208E05CEA010206D030228DF804206A
:104130008DF8050002229046009B83F0080353EAA5
:104140000A030AD15CEA010201D1620705D53022D7
:104150008DF804204FF001087F1E582804D034A0A9
:1041600003900EA802900DE036A0F9E75346604692
:10417000009AFCF737F884460398825C0298401E48
:10418000029002705CEA0100F0D1029806A9081AB8
:1041900000F1200A600702D524F4803400E00127F2
:1041A000574502DDA7EB0A0000E0002000EB0A0102
:1041B000009005984144401A0590E00306D45B4600
:1041C0002146179A059800F0B3F90544002706E048
:1041D00001A85A46C05D179990476D1C7F1C474542
:1041E000F6DBE0030CD55B462146179A059800F0F4
:1041F0009FF9054404E030205A46179990476D1CFA
:104200000099481E00900029F5DC08E00298029908
:104210005A460078491C0291179990476D1CBAF1D3
:104220000001AAF1010AF1DC65E1000009280100A2
:10423000303132333435363738396162636465661C
:1042400000000000303132333435363738394142DE
:10425000434445460000000000F058F90544761C30
:10426000307800287FF4ECAD19B02846BDE8F08F17
:10427000620700D4062709F1070222F0070CFCE8C8
:104280000223E14603F000485FEA080C02D00FF277
:10429000702C0DE05FEA045C02D50FF2682C07E099
:1042A0005FEAC47C02D00FF2602C01E0AFF2700C28
:1042B0004FF0FF3823F00043CDF850C065280CD0F4
:1042C00006DC452809D046281DD047283DD13DE0D1
:1042D000662818D067287ED138E00021112F01DB35
:1042E000112000E0781CCDE9000106A90EA8FFF717
:1042F000DDFCDDE90F010E9A03910021009207F128
:10430000010A04914DE04FF000400097CDE9011003
:1043100006A90EA8FFF7CAFCDDE90F0203920E9B67
:1043200011990022DDF80CA00093049211B9791CB8
:1043300000EB010AB7EB0A0004D4C0F1FF3007F12B
:10434000010A0490AAEB0700019044E0012F00DA73
:1043500001270021112F01DD112000E03846CDE9B1
:10436000000106A90EA8FFF7A1FCDDE90F010E9AD6
:104370000391002104910092BA4621070CD40399BD
:10438000514500DA8A46BAF1010F05DD009AAAF11B
:104390000101515C302908D0B84202DA10F1040F53
:1043A00006DA0121CDE9011015E0AAF10101E9E7E2
:1043B000002805DC049901440491AAEB000102E005
:1043C000411C514500DD8A460499401A401C019069
:1043D0004FF000400290200704D40198504501DBC3
:1043E000CDF8048000208DF84F0002980DF14F07A2
:1043F000B0F1004F25D02B200E9002984FF002080C
:1044000000280CDA404202902D200E9007E00A218D
:104410000298FCF7D3F83031029007F8011DB8F18B
:104420000001A8F10108F2DC02980028EFD1791E02
:104430000E980870307800F0200040F0450007F832
:10444000020D12A8C01B00F107081498007800B1F3
:10445000012000EB0A01019801EBE071059841444D
:10446000401A401E0590E00306D45B462146179A89
:10447000059800F05DF805441498007818B15A4684
:10448000179990476D1CE00324D55B462146179A87
:10449000059800F04DF805441CE00498002807DB5F
:1044A000DDE90301884203DD0098405C179901E0D3
:1044B000179930205A469047049805F10105401C91
:1044C00004900198401E019004D12E205A4617995D
:1044D00090476D1CBAF10001AAF1010ADDDC05E08C
:1044E00017F8010B5A46179990476D1CB8F1000157
:1044F000A8F10108F4DC5B462146179A0598ABE663
:104500002D0000002B000000200000002DE9F041EC
:10451000044600251E461746880404D405E03946A3
:104520002020B0476D1C641EF9D52846BDE8F081F7
:104530002DE9F041044600251E469046C80301D5EA
:10454000302700E02027880404D505E0414638469E
:10455000B0476D1C641EF9D52846BDE8F081000007
:10456000F0B50E4600EE106A2DED048B0446B8EE51
:10457000C00ADFED358A9FED358A81B060EE280AEA
:1045800080EE880A10EE100AFBF7B8FF41EC100B22
:10459000FEF79AFEB0EE409AF0EE609A2046FBF7E6
:1045A0007DFF0F4647EC110B044653EC192B51ECE1
:1045B000110BFBF701FFFBF782FF00EE106A0546C7
:1045C000B8EEC00A60EE280A80EE880A10EE100AE3
:1045D000FBF794FF41EC100BFEF7DAFE47EC114BB2
:1045E00053EC102B51EC110BFBF7E6FEFBF767FFCA
:1045F000441B05442046FBF751FF0F46064647EC97
:10460000100B134880ED000B2846FBF747FF0B46C5
:10461000024643EC100B0F48234680ED000B0E487A
:1046200047EC106B80ED000B41EC102B0B482A4639
:10463000194680ED000B0AA00095FEF70BFE01B0B5
:10464000BDEC048BF0BD0000D00F494000003443A6
:1046500098000020D0000020080100204001002028
:1046600025642025642025642025640A00000000BC
:1046700082B0CDE9000121F0004001909DED000BDA
:1046800002B051EC100B704738B504468DF80000AD
:104690000223012269460248FDF7C2FE204638BDCA
:1046A0004404002070B5064600218623EF22084608
:1046B00000F02AF900240025304600F051FA6D1C64
:1046C000ADB2872DF8D3641CA4B2F02CF3D370BD27
:1046D0002DE9FF5F91464FEAD20801EB0902521E15
:1046E00093B20E9C421E04FB092292B200F00CF918
:1046F000002024E003984FF6FF7B0AFB08050E9E7E
:1047000018E0002710E008242878611EC84010F047
:10471000010F01D00F9800E0584600F021FA641E06
:10472000002CF1DC6D1C7F1C4745ECDBA5EB08027F
:1047300018FB0925761EF6B2E3D20AF10100824683
:104740004845D7DBBDE8FF9F70B56D4C0122510392
:104750002046FCF73FFA012291032046FCF73AFA83
:10476000684DA415002221462846FCF733FAC820DC
:10477000FCF704F9012221462846FCF72BFA6420B5
:10478000FCF7FCF8362000F0ABF9A02000F068F947
:104790003A2000F0A5F9052000F062F9B22000F0FF
:1047A0009FF90C2000F05CF90C2000F059F9002072
:1047B00000F056F9332000F053F9332000F050F99F
:1047C000B72000F08DF9352000F04AF9BB2000F049
:1047D00087F9372000F044F9C02000F081F92C203F
:1047E00000F03EF9C22000F07BF9012000F038F91A
:1047F000C32000F075F9122000F032F9C42000F057
:104800006FF9202000F02CF9C62000F069F90F2084
:1048100000F026F9D02000F063F9A42000F020F980
:10482000A12000F01DF9E02000F05AF9D02000F09E
:1048300017F9042000F014F90D2000F011F91120EF
:1048400000F00EF9132000F00BF92B2000F008F90E
:104850003F2000F005F9542000F002F94C2000F050
:10486000FFF8182000F0FCF80D2000F0F9F80B20FC
:1048700000F0F6F81F2000F0F3F8232000F0F0F825
:10488000E12000F02DF9D02000F0EAF8042000F03B
:10489000E7F80C2000F0E4F8112000F0E1F8132014
:1048A00000F0DEF82C2000F0DBF83F2000F0D8F814
:1048B000442000F0D5F8512000F0D2F82F2000F06D
:1048C000CFF81F2000F0CCF81F2000F0C9F82020FE
:1048D00000F0C6F8232000F0C3F8212000F000F912
:1048E000112000F0FDF87820FCF748F8292000F0AE
:1048F000F7F8BDE870404FF6FF70FFF7D3BE000039
:1049000000100240000C02402DE9F04107461C4611
:1049100015460E462A2000F0E3F82837B8B200F01A
:104920001FF92835A8B200F01BF92B2000F0D8F8A9
:104930003436B0B200F014F93434A0B200F010F9FB
:10494000BDE8F0412C2000F0CBB800002DE9F74F76
:104950001648009F0024894600EB021817F107074C
:1049600009EB040083B281B2BAB20098FFF7CCFF22
:1049700008EB0400A0F58050002590F8006E4FF47D
:10498000784A4FF6FF7BF00701D0504600E05846CA
:1049900000F0E6F86D1C7608EDB2082DF3D3641C28
:1049A000E4B2102CDCD3BDE8FE8F0000C850000834
:1049B0002DE9F04107464FF6FF701646002400EA45
:1049C000011507E007EBC400294680B2FFF7BEFFE0
:1049D000641CA4B2325D002AF4D1BDE8F0812DE957
:1049E000FC41054642F21070B2FBF0F08DF8000079
:1049F0004FF47A70B2FBF0F00A23B0FBF3F403FB40
:104A000014008DF801006420B2FBF0F0B0FBF3F469
:104A100003FB14008DF80200B2FBF3F0B0FBF3F4DB
:104A200003FB14008DF80300B2FBF3F003FB10202E
:104A30008DF804004FF6FF7000246F4600EA01165F
:104A4000385D31463030C2B205EBC40080B2FFF7AA
:104A50007DFF641CE4B2052CF2D3BDE8FC810000AC
:104A60002DE9F047DFF8708005464FF4804A0824AE
:104A70000022514646464046FCF7ACF80122D103DD
:104A80003046FCF7A7F8154FE601002231463846BC
:104A9000FCF7A0F84FF4007914E0280601D50122B4
:104AA00000E0002249463846FCF794F801223146DE
:104AB0003846FCF78FF8002231463846FCF78AF872
:104AC0006806050E641EE4B2E7D251464046BDE8D2
:104AD000F0470122FCF77EB800100240000C0240B3
:104AE0002DE9F047DFF8708005464FF4804A08242E
:104AF0000022514646464046FCF76CF8002221034E
:104B00003046FCF767F8154FE6010022314638467B
:104B1000FCF760F84FF4007914E0280601D5012273
:104B200000E0002249463846FCF754F8012231469D
:104B30003846FCF74FF8002231463846FCF74AF871
:104B40006806050E641EE4B2E7D251464046BDE851
:104B5000F0470122FCF73EB800100240000C024072
:104B60002DE9F05FDFF8748005464FF4804B102488
:104B70000022594646464046FCF72CF80122D10354
:104B80003046FCF727F8164FA6010022314638467A
:104B9000FCF720F84FF4007A4FF6FF7914E0280470
:104BA00001D5012200E0002251463846FCF712F8F8
:104BB000012231463846FCF70DF8002231463846CE
:104BC000FCF708F809EA4505641EE4B2E7D2594645
:104BD0004046BDE8F05F0122FBF7FCBF0010024039
:104BE000000C02402DED088B82B0FCF707F8FDF7B2
:104BF000EFFFFDF771FCFDF705FFFDF755FDFDF734
:104C000029FEFDF75BFEFDF785FDFDF7B7FDFDF71E
:104C1000EBFDFDF7ADFEFDF7F9FCFDF711FDFDF72E
:104C2000D5FEFFF791FD4FF6FF773846FFF73AFDC7
:104C3000002183A20846FFF7BBFE6420FBF79EFE1F
:104C4000012282498248FDF7AFFB81480068416933
:104C500041F0010141613C217E48FCF7CFFD3C2140
:104C60007D48FCF7CBFD3C217C48FCF7C7FD3C218F
:104C70007B48FCF7C3FD7B48FCF71CFC00217A480D
:104C8000FCF7C8FF08217848FCF7C4FF00217748EB
:104C9000FCF7C0FF00217648FCF7BCFF72490020FA
:104CA0000968486370490968C863704909684863BE
:104CB0006F49096848636F48FDF738FF6D48383021
:104CC000FDF734FF6B487030FDF730FF6948A830BE
:104CD000FDF72CFF9FED680B664C9FED691B9FED68
:104CE0006A2B9FED6BAB04F1080004F1380580ECF2
:104CF000060B05F1080084ED00AB80EC060B85ED9A
:104D000000AB9FED653B04F1700686ED023B9FED25
:104D1000643B86ED043B9FED643B04F1A80886EDFF
:104D2000063B86ED00AB08F1080161A081EC060BA3
:104D300088ED00ABFEF78EFA00215FA20846FFF770
:104D400037FE6420FBF71AFE3846FFF7ABFC4FF442
:104D500078400327CDE9007010225B4B11460020FC
:104D6000FFF7B6FC4FF01F09CDE90079574B102231
:104D700030210020FFF7ACFC534BCDE900796033C4
:104D8000102230215020FFF7A3FC0221CDE90019A9
:104D90004E4B1022403B3021A020FFF799FC40F2FF
:104DA000E57205210020FFF71AFE284F9FED488B82
:104DB0009FED499B3878C8B99FED49BAB0EE4B0AD0
:104DC00000F090F8B0EE4B0A00F0CAF8B0EE4B0AD3
:104DD00000F0FEF8B0EE4B0A00F038F984ED00ABBD
:104DE00085ED00AB86ED00AB88ED00AB387801288F
:104DF0000FD0022814D0032819D00428DAD184ED6A
:104E0000009B85ED008B86ED009B00BF88ED008B3D
:104E1000D0E784ED008B85ED008B86ED008BF5E708
:104E200084ED009B85ED009B86ED009B05E084ED05
:104E3000008B85ED009B86ED008B88ED009BB9E72C
:104E4000737472617420696E697400000000002040
:104E50000004002078010020C0010020080200208A
:104E60005002002098020020E002002028030020C9
:104E7000B8030020980000206666666666660440F7
:104E8000894160E5D022AB3FB81E85EB51B89E3F0B
:104E900000000000000000000000000000000040D2
:104EA0009A9999999999A93F7B14AE47E17A943FD1
:104EB000696E69740A0A0000696E69742066696E19
:104EC00069736865640000003857000838580008A6
:104ED000000000000000594000000000000059C020
:104EE00000000000B1EE400A10EE100A1649884298
:104EF00002DB9FED160A06E010EE100A1449884204
:104F000001D99FED140A14491448B5EEC00A096886
:104F1000F1EE10FA06DBBDEEC00A10EE102A4A636D
:104F200001220CE0B5EEC00AF1EE10FA0AD2B1EEA1
:104F3000400ABDEEC00A10EE102A4A63002280210A
:104F4000FBF748BE7047000000007A4400007A4436
:104F500000007AC400007AC4E00200200008024089
:104F6000B1EE400A10EE100A1349884202DB9FEDB1
:104F7000130A06E010EE100A1149884201D39FED92
:104F8000110A114A1148B5EEC00A1268F1EE10FA82
:104F90004FF4007106DBBDEEC00A10EE103AD36389
:104FA000012207E0B1EE400ABDEEC00A10EE103A51
:104FB000D3630022FBF70EBE00007A4400007A445F
:104FC00000007AC400007AC4E00200200008024019
:104FD000B1EE400A10EE100A1649884202DB9FED3E
:104FE000160A06E010EE100A1449884201D99FED16
:104FF000140A14491448B5EEC00A0968F1EE10FA13
:1050000006DBBDEEC00A10EE102A4A6301220CE056
:10501000B5EEC00AF1EE10FA0AD2B1EE400ABDEECA
:10502000C00A10EE102A4A6300224021FBF7D2BDCD
:105030007047000000007A4400007A4400007AC4FF
:1050400000007AC42803002000100240B1EE400A9C
:1050500010EE100A1649884202DB9FED160A06E0A0
:1050600010EE100A1449884201D99FED140A144920
:105070001448B5EEC00A0968F1EE10FA06DBBDEE81
:10508000C00A10EE102A4A6301220CE0B5EEC00AF5
:10509000F1EE10FA0AD2B1EE400ABDEEC00A10EEEF
:1050A000102A4A6300224021FBF794BD704700009C
:1050B00000007A4400007A4400007AC400007AC4F8
:1050C000B8030020001402400000000000000000AF
:1050D00000000000000000000000000808080808A8
:1050E00008080000080800000048242412000000FE
:1050F00000000000000000000000004848487E2436
:1051000024247E24242400000000103C5252121C4F
:1051100030505052523C1010000000222515150D41
:105120002A585454522200000000000C1212120A95
:1051300076252919916E0000000604040200000083
:1051400000000000000000000040201010080808C7
:105150000808081010204000000204080810101071
:1051600010101008080402000000000008086B1C62
:105170001C6B080800000000000000000010101068
:10518000FE101010000000000000000000000000F1
:1051900000000000060404020000000000000000FF
:1051A0007E00000000000000000000000000000081
:1051B0000000000006060000000040202020101023
:1051C00008080804040202000000001824424242B9
:1051D0004242424224180000000000101C1010102F
:1051E00010101010107C00000000003C42424240B1
:1051F00020100804427E00000000003C4242402093
:1052000018204042423C000000000020303028249A
:105210002422FE2020F800000000007E0202021E70
:1052200022404042221C0000000000182402023AE2
:1052300046424242443800000000007E42202010D6
:1052400010080808080800000000003C4242422400
:1052500018244242423C00000000001C224242420C
:10526000625C404024180000000000000000181894
:1052700000000000181800000000000000000008F6
:10528000000000000008080800000040201008048A
:1052900002040810204000000000000000007E0012
:1052A000007E000000000000000000020408102042
:1052B00040201008040200000000003C424246204A
:1052C00010101000181800000000001C225A55553C
:1052D0005555553A423C00000000000808181414C7
:1052E000243C224242E700000000001F2222221E2E
:1052F00022424242221F00000000007C4242010183
:1053000001010142221C00000000001F2242424213
:1053100042424242221F00000000003F4212121E81
:1053200012120242423F00000000003F4212121ED1
:1053300012120202020700000000003C22220101BA
:1053400001712122221C0000000000E7424242427B
:105350007E42424242E700000000003E0808080882
:1053600008080808083E00000000007C101010101B
:10537000101010101010110F0000007722120A0EEA
:105380000A12122222770000000000070202020225
:1053900002020202427F00000000007736363636F5
:1053A000362A2A2A2A6B0000000000E346464A4AB1
:1053B00052525262624700000000001C22414141EB
:1053C00041414141221C00000000003F4242424254
:1053D0003E020202020700000000001C224141417F
:1053E0004141414D321C60000000003F4242423EBC
:1053F0001212222242C700000000007C4242020436
:1054000018204042423E00000000007F4908080882
:1054100008080808081C0000000000E74242424259
:1054200042424242423C0000000000E74242222445
:1054300024141418080800000000006B2A2A2A2AE5
:105440002A36141414140000000000E74224241823
:105450001818242442E700000000007722221414C8
:1054600008080808081C00000000007E2120101019
:1054700008040442423F00000078080808080808B1
:105480000808080808087800000002040404080856
:105490000810102020204040001E10101010101086
:1054A0001010101010101E00001824000000000042
:1054B00000000000000000000000000000000000EC
:1054C0007E00000000000000000608000000000050
:1054D0000000000000000000000000000000001CB0
:1054E00022302C22326C0000000000000302021A5D
:1054F00026424242261A0000000000000000003848
:105500004402020244380000000000006040407C79
:105510004242424262DC0000000000000000003C09
:1055200042427E02423C0000000000003048083E3B
:1055300008080808083E0000000000000000007C89
:1055400022221C023C42423C000000000302023ABC
:105550004642424242E700000000000C0C00000EF0
:1055600008080808083E000000000030300000383D
:10557000202020202020221E0000000003020272B2
:10558000120A0E1222770000000000080E08080818
:1055900008080808083E0000000000000000007F26
:1055A0009292929292B70000000000000000003B2F
:1055B0004642424242E70000000000000000003C7A
:1055C00042424242423C0000000000000000001B3A
:1055D00026424242261A020700000000000000583E
:1055E00064424242645840E000000000000000773E
:1055F0004C040404041F0000000000000000007CB4
:1056000042023C40423E0000000000000008083E0C
:10561000080808084830000000000000000000638F
:105620004242424262DC00000000000000000077BD
:10563000222214140808000000000000000000DB13
:1056400091525A2A24240000000000000000006E3D
:10565000241818182476000000000000000000E75D
:105660004224241818080806000000000000007EEC
:1056700022100808447E000000C0202020202020A6
:10568000102020202020C00010101010101010102A
:10569000101010101010101000030404040404046F
:1056A0000804040404040300045A2000000000005D
:1056B0000000000000000000000023FC10401080EB
:1056C00001440668F0B01128166810A411241620B1
:1056D00010A0284047FE00000000FFC0004000442A
:1056E00000480050006000500048004400200020A6
:1056F0000012000A0006000208101D10F090109021
:105700001010FD10109038903410501E53F090106F
:10571000101010101010101010201020102013FE68
:10572000FC201020102015FC18843088D048105020
:10573000102010505188260600007FFC0200020055
:10574000020002003FF004100410041004100810BE
:1057500008100810FFFE000000001FF810081008D5
:1057600010081FF81008100810081FF8100810087B
:10577000200820084028801008200820FFFE08206C
:1057800000000888089010A030C0508091801282DC
:1057900014821082107E10000100F9080908091017
:1057A00009207940410047FE414079200920091035
:1057B0000908094451822100010001000100010093
:1057C0003FF8210821082108210821083FF8210875
:1057D00001000100010001000200020002FC7F2024
:1057E000014000840764381C0000FFFE04400440B0
:1057F000044008423042C03E00207E2002200420A7
:10580000082008A80AA40CA43922C9220A220820C8
:105810000820082028A010400004000E7CF04480DE
:105820004480448044FE7C8844884488448844887A
:105830007C88450801080208007827C012481150EA
:1058400087FC41504248140613F82248E24823F8E6
:105850002248224823F8020802100110F91027BE3E
:105860002240220023BEFA8A228822A822AE3AA829
:10587000E4A845A8085E108000701F80100010008A
:105880001FF8108010801080FFFE01000100210829
:10589000210821083FF80008000000000000000077
:1058A00001020304060708090000000001020304C6
:1058B0004C5555555555A53F7751C1166CC156BF2E
:1058C0009015CB19A001FA3EAD529C804F7E92BE3E
:1058D000C4B1B4BD9EEE213ED43888BEE9FAA8BD5D
:1058E00000004054FB21F93F3163621A61B4D03D9E
:1058F0000000601A61B4D03D7370032E8A19A33B77
:105900000000002E8A19A33BC14920259A837B39C8
:1059100000000000000000006E83F9A22915444E2B
:10592000D15727FCC0DD34F5999562DB4190433CAB
:10593000AB6351FE61C5BBDE3A6E24B7E0D24D4287
:10594000EA2E49061C92D1091CEB1DFE3EA729B187
:10595000F53582E88444BB2E26709CE9417E5FB415
:1059600039D69139F43953838B5F849C3B28F9BD38
:10597000FF97F81F0F9805DE8B112FEF1F6D0A5A46
:10598000CF7E366DB709CB27663F464F2DEA5F9E27
:10599000C7BA27757BF1E5EBF739073DEA92528AE2
:1059A000B15FFB6B085D8D1FA6F810111111813FCF
:1059B000D561C119A0012ABF7DFEB157E31DC73EC5
:1059C000EB9C2B8AE6E55ABE7CD5CF5A3AD9E53D09
:1059D000F05900080000002048000000803C00084A
:1059E000385A00084800002040080000903C000899
:1059F00000000000000000000000000000000000A7
:105A00000000000000000000000000005A0000003C
:105A10000000000000000000000000000000000086
:105A20000100000010000000000000000024F4004D
:085A300000000000000000006E
:04000005080001AD41
:00000001FF
